{
  "contractName": "Helloworld",
  "abi": [
    {
      "inputs": [
        {
          "internalType": "string",
          "name": "_message",
          "type": "string"
        }
      ],
      "stateMutability": "nonpayable",
      "type": "constructor"
    },
    {
      "inputs": [],
      "name": "message",
      "outputs": [
        {
          "internalType": "string",
          "name": "",
          "type": "string"
        }
      ],
      "stateMutability": "view",
      "type": "function",
      "constant": true
    },
    {
      "inputs": [],
      "name": "owner",
      "outputs": [
        {
          "internalType": "address",
          "name": "",
          "type": "address"
        }
      ],
      "stateMutability": "view",
      "type": "function",
      "constant": true
    },
    {
      "inputs": [],
      "name": "hello",
      "outputs": [
        {
          "internalType": "string",
          "name": "",
          "type": "string"
        }
      ],
      "stateMutability": "pure",
      "type": "function",
      "constant": true
    },
    {
      "inputs": [
        {
          "internalType": "string",
          "name": "_message",
          "type": "string"
        }
      ],
      "name": "setMessage",
      "outputs": [],
      "stateMutability": "nonpayable",
      "type": "function"
    }
  ],
  "bytecode": "0x60806040523480156200001157600080fd5b5060405162000d9538038062000d95833981810160405281019062000037919062000223565b336000806101000a81548173ffffffffffffffffffffffffffffffffffffffff021916908373ffffffffffffffffffffffffffffffffffffffff1602179055508060019081620000889190620004bf565b5050620005a6565b6000604051905090565b600080fd5b600080fd5b600080fd5b600080fd5b6000601f19601f8301169050919050565b7f4e487b7100000000000000000000000000000000000000000000000000000000600052604160045260246000fd5b620000f982620000ae565b810181811067ffffffffffffffff821117156200011b576200011a620000bf565b5b80604052505050565b60006200013062000090565b90506200013e8282620000ee565b919050565b600067ffffffffffffffff821115620001615762000160620000bf565b5b6200016c82620000ae565b9050602081019050919050565b60005b83811015620001995780820151818401526020810190506200017c565b60008484015250505050565b6000620001bc620001b68462000143565b62000124565b905082815260208101848484011115620001db57620001da620000a9565b5b620001e884828562000179565b509392505050565b600082601f830112620002085762000207620000a4565b5b81516200021a848260208601620001a5565b91505092915050565b6000602082840312156200023c576200023b6200009a565b5b600082015167ffffffffffffffff8111156200025d576200025c6200009f565b5b6200026b84828501620001f0565b91505092915050565b600081519050919050565b7f4e487b7100000000000000000000000000000000000000000000000000000000600052602260045260246000fd5b60006002820490506001821680620002c757607f821691505b602082108103620002dd57620002dc6200027f565b5b50919050565b60008190508160005260206000209050919050565b60006020601f8301049050919050565b600082821b905092915050565b600060088302620003477fffffffffffffffffffffffffffffffffffffffffffffffffffffffffffffffff8262000308565b62000353868362000308565b95508019841693508086168417925050509392505050565b6000819050919050565b6000819050919050565b6000620003a06200039a62000394846200036b565b62000375565b6200036b565b9050919050565b6000819050919050565b620003bc836200037f565b620003d4620003cb82620003a7565b84845462000315565b825550505050565b600090565b620003eb620003dc565b620003f8818484620003b1565b505050565b5b81811015620004205762000414600082620003e1565b600181019050620003fe565b5050565b601f8211156200046f576200043981620002e3565b6200044484620002f8565b8101602085101562000454578190505b6200046c6200046385620002f8565b830182620003fd565b50505b505050565b600082821c905092915050565b6000620004946000198460080262000474565b1980831691505092915050565b6000620004af838362000481565b9150826002028217905092915050565b620004ca8262000274565b67ffffffffffffffff811115620004e657620004e5620000bf565b5b620004f28254620002ae565b620004ff82828562000424565b600060209050601f83116001811462000537576000841562000522578287015190505b6200052e8582620004a1565b8655506200059e565b601f1984166200054786620002e3565b60005b8281101562000571578489015182556001820191506020850194506020810190506200054a565b868310156200059157848901516200058d601f89168262000481565b8355505b6001600288020188555050505b505050505050565b6107df80620005b66000396000f3fe608060405234801561001057600080fd5b506004361061004c5760003560e01c806319ff1d2114610051578063368b87721461006f5780638da5cb5b1461008b578063e21f37ce146100a9575b600080fd5b6100596100c7565b60405161006691906102b1565b60405180910390f35b6100896004803603810190610084919061041c565b610104565b005b61009361016f565b6040516100a091906104a6565b60405180910390f35b6100b1610193565b6040516100be91906102b1565b60405180910390f35b60606040518060400160405280600581526020017f68656c6c6f000000000000000000000000000000000000000000000000000000815250905090565b3373ffffffffffffffffffffffffffffffffffffffff1660008054906101000a900473ffffffffffffffffffffffffffffffffffffffff1673ffffffffffffffffffffffffffffffffffffffff161461015c57600080fd5b806001908161016b91906106d7565b5050565b60008054906101000a900473ffffffffffffffffffffffffffffffffffffffff1681565b600180546101a0906104f0565b80601f01602080910402602001604051908101604052809291908181526020018280546101cc906104f0565b80156102195780601f106101ee57610100808354040283529160200191610219565b820191906000526020600020905b8154815290600101906020018083116101fc57829003601f168201915b505050505081565b600081519050919050565b600082825260208201905092915050565b60005b8381101561025b578082015181840152602081019050610240565b60008484015250505050565b6000601f19601f8301169050919050565b600061028382610221565b61028d818561022c565b935061029d81856020860161023d565b6102a681610267565b840191505092915050565b600060208201905081810360008301526102cb8184610278565b905092915050565b6000604051905090565b600080fd5b600080fd5b600080fd5b600080fd5b7f4e487b7100000000000000000000000000000000000000000000000000000000600052604160045260246000fd5b61032982610267565b810181811067ffffffffffffffff82111715610348576103476102f1565b5b80604052505050565b600061035b6102d3565b90506103678282610320565b919050565b600067ffffffffffffffff821115610387576103866102f1565b5b61039082610267565b9050602081019050919050565b82818337600083830152505050565b60006103bf6103ba8461036c565b610351565b9050828152602081018484840111156103db576103da6102ec565b5b6103e684828561039d565b509392505050565b600082601f830112610403576104026102e7565b5b81356104138482602086016103ac565b91505092915050565b600060208284031215610432576104316102dd565b5b600082013567ffffffffffffffff8111156104505761044f6102e2565b5b61045c848285016103ee565b91505092915050565b600073ffffffffffffffffffffffffffffffffffffffff82169050919050565b600061049082610465565b9050919050565b6104a081610485565b82525050565b60006020820190506104bb6000830184610497565b92915050565b7f4e487b7100000000000000000000000000000000000000000000000000000000600052602260045260246000fd5b6000600282049050600182168061050857607f821691505b60208210810361051b5761051a6104c1565b5b50919050565b60008190508160005260206000209050919050565b60006020601f8301049050919050565b600082821b905092915050565b6000600883026105837fffffffffffffffffffffffffffffffffffffffffffffffffffffffffffffffff82610546565b61058d8683610546565b95508019841693508086168417925050509392505050565b6000819050919050565b6000819050919050565b60006105d46105cf6105ca846105a5565b6105af565b6105a5565b9050919050565b6000819050919050565b6105ee836105b9565b6106026105fa826105db565b848454610553565b825550505050565b600090565b61061761060a565b6106228184846105e5565b505050565b5b818110156106465761063b60008261060f565b600181019050610628565b5050565b601f82111561068b5761065c81610521565b61066584610536565b81016020851015610674578190505b61068861068085610536565b830182610627565b50505b505050565b600082821c905092915050565b60006106ae60001984600802610690565b1980831691505092915050565b60006106c7838361069d565b9150826002028217905092915050565b6106e082610221565b67ffffffffffffffff8111156106f9576106f86102f1565b5b61070382546104f0565b61070e82828561064a565b600060209050601f831160018114610741576000841561072f578287015190505b61073985826106bb565b8655506107a1565b601f19841661074f86610521565b60005b8281101561077757848901518255600182019150602085019450602081019050610752565b868310156107945784890151610790601f89168261069d565b8355505b6001600288020188555050505b50505050505056fea26469706673582212206df1750d92ece87a841011b8ad7a130059984f6bdaa4607ba40f35c8d9c97f9664736f6c63430008110033",
  "immutableReferences": {},
  "source": "// SPDX-License-Identifier: MIT\npragma solidity >=0.4.22 <0.9.0;\n\ncontract Helloworld {\n// for storing owner and message\n    address public owner;\n    string public message;\n    function hello() public pure returns(string memory){\n        return \"hello\";\n    }\n    constructor (string memory _message){\n        owner = msg.sender;\n        message = _message;\n    }\n    function setMessage(string memory _message) public {\n        require(owner == msg.sender);\n        message = _message;\n    }\n}",
  "sourcePath": "/Users/mycodingjourney/Desktop/TruffleAssignments/TruffleForBeginners/contracts/Helloworld.sol",
  "compiler": {
    "name": "solc",
    "version": "0.8.17+commit.8df45f5f.Emscripten.clang"
  },
  "schemaVersion": "3.4.10",
  "updatedAt": "2022-10-18T18:43:14.459Z",
  "networkType": "ethereum",
  "devdoc": {
    "kind": "dev",
    "methods": {},
    "version": 1
  },
  "userdoc": {
    "kind": "user",
    "methods": {},
    "version": 1
  }
}